:100000000C94A3050C94CB050C94CB050C94CB0558
:100010000C94CB050C94CB050C94CB050C94CB0520
:100020000C94CB050C94CB050C946C0B0C94DE0B50
:100030000C94CB050C94CB050C94CB050C94CB0500
:100040000C94CB050C94CB050C94CB050C94CB05F0
:100050000C94CB050C94CB050C94CB050C947C1222
:100060000C94CB050C94CB050C94CB050C94CB05D0
:100070000C94CB050C94CB050C94CB050C94CB05C0
:100080000C94E1100C94CB050C94CB050C94CB058F
:100090000C94CB050C94CB050C94CB050C94CB05A0
:1000A0000C94CB050C94CB050C94CB05F0F89C8EEE
:1000B0008783878E9CF8F00000FEFF030303030391
:1000C000070EFCF80000FEFF0303030303070EFC0A
:1000D000F80000FFFF00000000000000FFFF00002C
:1000E000FEFF8383838383C7EE7C380000F8FC0E19
:1000F00007030303070EFCF800003F7FE0C0808089
:10010000C0E07F3FFFFF01010101010101FFFF008E
:1001100000FFFF0C0C0C0C1C3E77E3C100007FFFBE
:10012000C0C0C0C0C0E0703F1F00001F3F70E0C0F3
:10013000C0C0E0703F1F00007FFFC1C1C1C1C1E36B
:10014000773E1C00001F3F70E0C0C0C0E0703F1F42
:10015000000000000001FFFF01000000D5F08D1439
:10016000A1C881CFD9F1AF2000616C6C20636C65B0
:10017000617200636C6561720067616D65206F7606
:1001800065722100C0B0A8ADAEF0A0C00F0E0FF890
:10019000181818F8F818181818FF0E0F463F07FF20
:1001A0001B1D1FFEFE3F5F3AF60F7F460890D67F6D
:1001B0007FD690080000000000C040408000000092
:1001C000000000000000000000000000000000002F
:1001D000000000000000000000000000000000001F
:1001E000000000000000000000000000000000000F
:1001F0000000000000000000F0A0C0A0F08080809F
:1002000080800080700800000000000000000000F6
:1002100000000000000000000000000000000000DE
:1002200000000000000000000000000000000000CE
:100230000000000000000000000F0202010006099B
:1002400009060006090906003F090906000000002A
:10025000000000000000000000000000000000009E
:10026000000000000000000000000000000000008E
:10027000000000000000000000010101101F030346
:1002800003131F0000200000002000000000800079
:10029000000000000000000000000000000000005E
:1002A0008080C020101008040B1010204080808037
:1002B000000000000000000000000000000000003E
:1002C00000000000FF8181818181817E00000000AB
:1002D00000000000000000000000000000004000DE
:1002E000000000000000000000FF0000000000000F
:1002F00000000000000000000000000000000000FE
:1003000000000000000000000000010000000004E8
:100310000000808044404030488888848282424186
:10032000404040418242424242424200212000007D
:1003300009060408000000000000000000000000A2
:1003400000000000FF000000000000007E818181AD
:100350008181427C8000FF02010101FE0000FE005D
:10036000007E81818181420000CF000000000000FA
:10037000000000000000000000000000000000007D
:1003800000000000000000000000C0201008080865
:1003900006091010202020202040404040404040CE
:1003A000404040202020202020202020101010102D
:1003B000100000000000000000000000000000002D
:1003C000000000000000000000000000000000002D
:1003D000000000000000000000000000000000001D
:1003E000000070F8F8F878F040440E1E3EFE3E1E05
:1003F0000E040000000000000000000000000000EB
:100400000000000038C402020101020404080808C8
:100410000808181010101010202020202020202064
:1004200020201010101010101010101008080808CC
:1004300008080000000000000000000000000000AC
:1004400000000000000000000000000000000000AC
:10045000000000000000000000000000000000009C
:100460000000000183FF83818080808080FF800006
:10047000000000000000000000000000000000007C
:10048000000000000000010202020204040404044F
:1004900004040404080808080808080808080808EC
:1004A00008080808080808080808080808040404D8
:1004B000040404040000000000000000000000002C
:1004C000000000000000000000000000000000002C
:1004D00000000000000000000000C0E0D0D8D4E41C
:1004E000C2020181403F408000000000003F000048
:1004F00000000000000000000000000000000000FC
:1005000000000000000000000000000080808080EB
:1005100000000000000000000000000000000000DB
:1005200000000000000000000000000000000000CB
:1005300000000000000000000000000000000000BB
:1005400000000000000000000000000000000000AB
:1005500000000000000000000000071F1F1F1F1FF9
:1005600007003F00000000003F0000000000000006
:10057000000000000000000000000000000000007B
:10058000000000000000000000001E214C52524CF0
:10059000510E007D007E0402027C003C42423C4041
:1005A00000404040003C42423C40007E0402027C4D
:1005B000007D0000080B0002020201000904000097
:1005C00001020200000524001001052401010104BC
:1005D00024020605240600010705810310004009D6
:1005E000040100020A0000000705020240000007A3
:1005F0000583024000000403090441726475696EBA
:100600006F204C4C430041726475696E6F204C65DD
:100610006F6E6172646F00120100020000004041C1
:1006200023368000010102030112010002EF0201E2
:100630004041233680000101020301000000000058
:100640003E5B4F5B3E3E6B4F6B3E1C3E7C3E1C1840
:100650003C7E3C181C577D571C1C5E7F5E1C00189E
:100660003C1800FFE7C3E7FF0018241800FFE7DB92
:10067000E7FF30483A060E2629792926407F0505EE
:1006800007407F05253F5A3CE73C5A7F3E1C1C082B
:10069000081C1C3E7F14227F22145F5F005F5F06F0
:1006A000097F017F006689956A606060606094A23E
:1006B000FFA29408047E040810207E201008082A57
:1006C0001C08081C2A08081E101010100C1E0C1EF6
:1006D0000C30383E3830060E3E0E0600000000009A
:1006E00000005F00000007000700147F147F14243F
:1006F0002A7F2A12231308646236495620500008C4
:10070000070300001C2241000041221C002A1C7F1C
:100710001C2A08083E0808008070300008080808F5
:1007200008000060600020100804023E5149453E68
:1007300000427F400072494949462141494D3318E2
:1007400014127F1027454545393C4A49493141211A
:100750001109073649494936464949291E000014FE
:100760000000004034000000081422411414141446
:1007700014004122140802015909063E415D594EF8
:100780007C1211127C7F494949363E414141227F0A
:100790004141413E7F494949417F090909013E41A3
:1007A0004151737F0808087F00417F41002040418C
:1007B0003F017F081422417F404040407F021C02DD
:1007C0007F7F0408107F3E4141413E7F09090906B1
:1007D0003E4151215E7F0919294626494949320384
:1007E000017F01033F4040403F1F2040201F3F400A
:1007F00038403F63140814630304780403615949C3
:100800004D43007F41414102040810200041414115
:100810007F040201020440404040400003070800FA
:1008200020545478407F284444383844444428387D
:100830004444287F385454541800087E090218A4F0
:10084000A49C787F0804047800447D400020404048
:100850003D007F1028440000417F40007C04780464
:10086000787C080404783844444438FC182424185C
:1008700018242418FC7C0804040848545454240404
:10088000043F44243C4040207C1C2040201C3C4031
:1008900030403C44281028444C9090907C44645450
:1008A0004C44000836410000007700000041360843
:1008B0000002010204023C2623263C1EA1A1611273
:1008C0003A4040207A3854545559215555794121A0
:1008D00054547841215554784020545579400C1E89
:1008E0005272123955555559395454545939555431
:1008F00054580000457C410002457D420001457C82
:1009000040F0292429F0F0282528F07C5455450092
:100910002054547C547C0A097F4932494949323277
:1009200048484832324A4848303A4141217A3A42AE
:10093000402078009DA0A07D39444444393D40408A
:10094000403D3C24FF2424487E4943662B2FFC2F46
:100950002BFF0929F620C0887E09032054547941D1
:100960000000447D413048484A32384040227A00F5
:100970007A0A0A727D0D19317D2629292F28262908
:1009800029292630484D402038080808080808085A
:1009900008382F10C8ACBA2F102834FA00007B009A
:1009A0000008142A142222142A1408950022009503
:1009B000AA005500AAAA55AA55AA000000FF0010D7
:1009C0001010FF00141414FF001010FF00FF10108F
:1009D000F010F0141414FC001414F700FF0000FFD2
:1009E00000FF1414F404FC141417101F10101F102F
:1009F0001F1414141F00101010F0000000001F102E
:100A00001010101F10101010F010000000FF101038
:100A100010101010101010FF10000000FF14000044
:100A2000FF00FF00001F10170000FC04F41414174F
:100A300010171414F404F40000FF00F71414141435
:100A4000141414F700F7141414171410101F101FA7
:100A5000141414F4141010F010F000001F101F00F4
:100A600000001F14000000FC140000F010F0101033
:100A7000FF10FF141414FF141010101F00000000CA
:100A8000F010FFFFFFFFFFF0F0F0F0F0FFFFFF00BE
:100A900000000000FFFF0F0F0F0F0F3844443844D1
:100AA0007C2A2A3E147E02020606027E027E026331
:100AB000554941633844443C04407E201E200602D0
:100AC0007E020299A5E7A5991C2A492A1C4C7201AD
:100AD000724C304A4D4D303048784830BC625A46EE
:100AE0003D3E494949007E0101017E2A2A2A2A2ADF
:100AF00044445F444440514A444040444A514000C9
:100B000000FF0103E080FF000008086B6B0836124D
:100B1000362436060F090F060000181800000010D2
:100B200010003040FF0101001F01011E00191D17B8
:100B300012003C3C3C3C0000000000010204081094
:100B400020408000A91811241FBECFEFDAE0DEBFDD
:100B5000CDBF29E0A8E5B1E001C01D92A632B207E1
:100B6000E1F711E0A0E0B1E0E0EFF3E302C00590AF
:100B70000D92A835B107D9F715E0C3EAD5E004C056
:100B80002197FE010E941619C23AD107C9F70E94A7
:100B9000C6120C94F6190C940000CF92DF92EF92DB
:100BA000FF920F931F93CF93DF936C017A018B0118
:100BB000C0E0D0E0CE15DF0589F0D8016D918D0140
:100BC000D601ED91FC910190F081E02DC6010995CF
:100BD000892B11F47E0102C02196ECCFC701DF9171
:100BE000CF911F910F91FF90EF90DF90CF900895DC
:100BF000E4E6F1E080E09081992329F08F5F3D9653
:100C00008E31C9F78FEF08950E941C19CF93DF939F
:100C100000D000D0CDB7DEB7611571058105910513
:100C200079F09B01AC0169833A834B835C830E941A
:100C30006F1929813A814B815C810E94931903C00D
:100C400060E070E0CB010F900F900F900F90DF915C
:100C5000CF9108954F925F926F927F928F929F9261
:100C6000AF92BF92CF92DF92EF92FF920F931F93BA
:100C7000CF93DF9380E090E0FC01E85AFE4F1486AA
:100C80000D96863821E09207B9F780E090E0FC01EC
:100C9000E252FD4F14860D968638E1E09E07B9F7C3
:100CA00080910001833009F4E2C080F4813009F4BE
:100CB00029C1823009F0BEC203E010E0DDE0CD2E94
:100CC000DD24D39484E1E82EF12C69C1853009F448
:100CD00030C208F4A6C1863009F0ACC20E94F80503
:100CE000CDE0C89FC00111248C01085A1E4F9924E1
:100CF0009394F80194861182108280E1482E512C41
:100D000053824282AA24A394B12CB582A482178272
:100D100016822AE0E22EF12CF186E08669E070E08E
:100D200080E090E00E940606F801738762870E94C7
:100D3000F805C89FC00111248C01085A1E4FF80104
:100D4000948638E0C32ED12CD182C08248E1642E33
:100D5000712C73826282B582A48217821682F18618
:100D6000E08669E070E080E090E00E940606F8010D
:100D7000738762870E94F805C89FC00111248C0107
:100D8000085A1E4FF80194865182408280E290E01A
:100D900093838283B582A48217821682F186E086CD
:100DA00069E070E080E090E00E940606F801738739
:100DB00062870E94F805C89FC00111248C01085A5F
:100DC0001E4FF80194867182608288E290E09383DE
:100DD0008283B582A48217821682F186E08669E05A
:100DE00070E080E090E00E940606F8017387628759
:100DF0000E94F805C89FC00111248C01085A1E4F9B
:100E0000F80194861182108280E390E093838283BC
:100E100052E0A52EB12CB582A4821782168264E11D
:100E2000E62EF12CF186E08663E170E080E090E050
:100E30000E940606F801738762870E94F805C89F22
:100E4000C0011124EC01C85ADE4F9C86D982C882A9
:100E500088E390E09B838A83BD82AC821F821E82DE
:100E6000F986E88663E170E080E090E0DFC10E94EF
:100E7000F8051DE0189FC0011124EC01C85ADE4F8F
:100E800001E00C8768E770E080E090E00E940606D1
:100E90007983688360E470E080E090E00E94060659
:100EA0007B836A8364E070E080E090E00E94060645
:100EB000DC01CB010297A109B1099D838C8364E019
:100EC00070E080E090E00E940606DC01CB01029712
:100ED000A109B1099F838E8384E190E09987888777
:100EE00063E170E080E090E00E9406067B876A87FD
:100EF0000E94F805189FC0011124EC01C85ADE4F6A
:100F00000C87E4C002E010E09DE0C92EDD24D394FC
:100F100024E1E22EF12C0E94F805C89EC0011124A4
:100F2000EC01C85ADE4FDC8668E770E080E090E0B4
:100F30000E9406067983688360E470E080E090E0B8
:100F40000E9406067B836A8364E070E080E090E0A4
:100F50000E940606DC01CB010297A109B1099D831D
:100F60008C8364E070E080E090E00E940606DC0183
:100F7000CB010297A109B1099F838E83F986E88688
:100F800063E170E080E090E00E9406067B876A875C
:100F90000130110509F44EC101E010E0BCCF0E9400
:100FA000F805C89EC0011124EC01C85ADE4FDC864A
:100FB00068E770E080E090E00E940606798368832D
:100FC00060E470E080E090E00E9406067B836A8324
:100FD00064E070E080E090E00E940606DC01CB0156
:100FE0000297A109B1099D838C8364E070E080E0E1
:100FF00090E00E940606DC01CB010297A109B1092D
:101000009F838E83F986E88663E170E080E090E05C
:101010000E9406067B876A870150110909F0BFCF3D
:1010200009C103E010E0BDE0CB2EDD24D394C4E180
:10103000EC2EF12C0E94F805C89EC0011124EC0191
:10104000C85ADE4FDC8668E770E080E090E00E94DE
:1010500006067983688360E470E080E090E00E9497
:1010600006067B836A8364E070E080E090E00E9483
:101070000606DC01CB010297A109B1099D838C838F
:1010800064E070E080E090E00E940606DC01CB01A5
:101090000297A109B1099F838E83F986E88663E1EF
:1010A00070E080E090E00E9406067B876A8701502E
:1010B000110909F0BFCF0E94F805FDE08F9FC00124
:1010C0001124EC01C85ADE4F81E08C8768E770E09C
:1010D00080E090E00E9406067983688360E470E017
:1010E00080E090E00E9406067B836A8364E070E003
:1010F00080E090E00E940606DC01CB010297A10986
:10110000B1099D838C8364E070E080E090E00E94F0
:101110000606DC01CB010297A109B1099F838E83EA
:1011200085E090E09987888764E070E080E090E057
:101130007DC00E94F8057DE0C72EC89EC001112425
:10114000EC01C85ADE4FDD24D394DC861982188264
:10115000E0E18E2E912C9B828A82EE24E394F12C86
:10116000FD82EC821F821E820AE010E01987088748
:1011700069E070E080E090E00E9406067B876A8765
:101180000E94F805C89EC0011124EC01C85ADE4F28
:10119000DC8688E090E099838883A8E1AA2EB12CB0
:1011A000BB82AA82FD82EC821F821E821987088779
:1011B00069E070E080E090E00E9406067B876A8725
:1011C0000E94F805C89EC0011124EC01C85ADE4FE8
:1011D000DC869982888280E290E09B838A83FD820C
:1011E000EC821F821E821987088769E070E080E028
:1011F00090E00E9406067B876A870E94F805C89ED9
:10120000C0011124EC01C85ADE4FDC86B982A882E5
:1012100088E290E09B838A83FD82EC821F821E829B
:101220001987088769E070E080E090E00E94060678
:101230007B876A8788EB9BE09093650480936404C6
:10124000DF91CF911F910F91FF90EF90DF90CF90A2
:10125000BF90AF909F908F907F906F905F904F90D6
:10126000089508958091860481110DC082E08093D5
:10127000820484E080938304109285041092840495
:1012800081E08093860482E894E00895CF93DF9311
:101290001F92CDB7DEB76983DC01ED91FC9102802E
:1012A000F381E02D41E050E0BE016F5F7F4F099573
:1012B0000F90DF91CF91089583E08093E9008091B2
:1012C000F200882319F08AE38093E8000895FC0176
:1012D0008485958597FD0BC09FB7F89482E0809335
:1012E000E9008091F2009FBF90E0019608959FB7BA
:1012F000F89482E08093E9008091F2009FBF90E033
:1013000008952F923F924F925F926F927F928F92A9
:101310009F92AF92BF92CF92DF92EF92FF920F9384
:101320001F93CF93DF93CDB7DEB727970FB6F8940F
:10133000DEBF0FBECDBFFC016A3069F4248D808D05
:10134000918D38E0239F800D911D1124918F808F06
:10135000178A168AA6C06D3009F4A3C09F838E83B6
:10136000348C238D2983328D3A83608C718CE6888E
:10137000F78880E8E816F104C4F0AE81BF815C967E
:101380002C915C97422F50E056968D919C915797E7
:10139000B6E02B9F800D911D1124EE81FF81978B6C
:1013A000868B258D211167C07CC0F0E46F16710417
:1013B00024F7C70125E0329E800D911D11241816D7
:1013C0001906DCF6432C512CC30138E0339E800D06
:1013D000911D11241816190684F685E0689F800176
:1013E0001124055C194F20E0F8012490253009F400
:1013F000212C430158E020FC02C0398101C03A8110
:1014000031110BC0F9818A81F81307C0269451501D
:10141000840C951C5111EFCF25C067018C2D8E19BE
:101420008315A0F754018A2D88198315B8F490E824
:10143000C916D10478F4A0E4AA16B10458F4432FD5
:10144000B501C6012C833B835D830E9476115D81CB
:101450003B812C81BFEFAB1ABB0AE5CFEFEFCE1A71
:10146000DE0ADCCF2F5FE40CF51C0F5F1F4F263028
:1014700009F0BACF82CF6AEF64039001659F300D07
:10148000112420583F4F281739075CF4AE81BF81E3
:10149000ED91FC9111970190F081E02D6AE0CD0172
:1014A000099581E090E027960FB6F894DEBF0FBE55
:1014B000CDBFDF91CF911F910F91FF90EF90DF9003
:1014C000CF90BF90AF909F908F907F906F905F90E4
:1014D0004F903F902F9008958F929F92AF92BF921E
:1014E000CF92DF92EF92FF920F931F93CF93DF93F0
:1014F0005C016B018A0180910C01882309F45EC0B4
:1015000080919004882309F459C080917F0480FF62
:1015100005C08091E00082608093E000E8018AEFDE
:10152000F82E93E0E92E2FE3822E3AE3932E2097B4
:1015300009F43DC08FB7F894E092E9009091E8007B
:1015400095FF06C09091F200282D291B922F01C013
:1015500090E08FBF91110AC0FA94FF2079F161E009
:1015600070E080E090E00E944212E1CF292F30E04D
:10157000C217D3070CF49C2F8FB7F894E092E900C0
:101580002091E80025FF11C0292F30E0C21BD30BAA
:10159000F601915020F041914093F100FACFC20E34
:1015A000D31E9091E80095FF13C08FBFC0CF5D9808
:1015B00084E6809381041016110644F081E090E0E7
:1015C000F5019383828380E090E005C0C80103C0E9
:1015D0009092E800EACFDF91CF911F910F91FF9099
:1015E000EF90DF90CF90BF90AF909F908F90089535
:1015F000CF93DF931F92CDB7DEB7FC01848595852D
:1016000097FD05C02FEF3FEF358724870BC0CE0134
:1016100001960E94B710019719F4898190E002C0E9
:101620008FEF9FEF0F90DF91CF9108950F931F934E
:10163000CF93DF931F92CDB7DEB78C01FC01848579
:10164000958597FF0EC0CE0101960E94B7100197B5
:1016500019F4298130E002C02FEF3FEFF801358700
:101660002487F801848595850F90DF91CF911F9194
:101670000F9108950F931F93CF93DF931F92CDB7D0
:10168000DEB782E0898342E450E064EB75E080E8F5
:101690000E940E120E943209DC0112960D911C91DB
:1016A00013970115110569F0D801ED91FC910280A5
:1016B000F381E02DBE016F5F7F4FC801099597FF51
:1016C00007C089810F90DF91CF911F910F910895ED
:1016D000F80100851185E5CF1F920F920FB60F928A
:1016E00011248F939F938091E1009091E100937F6B
:1016F0009093E10083FF0FC01092E90091E0909376
:10170000EB001092EC0092E39093ED0010929004A5
:1017100098E09093F00082FF20C093E09093E9005E
:101720009091F200992319F09AE39093E800909138
:101730008104992339F09091810491509093810410
:10174000992389F190918F04992339F090918F0416
:10175000915090938F04992341F184FF10C08091A0
:10176000E2008E7E81608093E2008091E1008F7EB6
:101770008093E10080917F048E7E806111C080FFA4
:1017800016C08091E2008E7E80618093E20080919D
:10179000E1008E7E8093E10080917F048E7E8160E7
:1017A00080937F0404C05D9ACDCF289AD6CF9F91B5
:1017B0008F910F900FBE0F901F9018951F920F9250
:1017C0000FB60F921124CF92DF92EF92FF920F93F8
:1017D0001F932F933F934F935F936F937F938F93B9
:1017E0009F93AF93BF93EF93FF93CF93DF93CDB7C7
:1017F000DEB76C97DEBFCDBF1092E9008091E800A4
:1018000083FFFAC168E0CE0145960E94351282EF4F
:101810008093E8008D8987FF05C09091E80090FFD4
:10182000FCCF03C09EEF9093E800982F907609F0CC
:10183000C6C09E892F89188D91110CC0803829F45B
:1018400080917E048093F10002C01092F10010920A
:10185000F10047C1422F50E0512B913051F48111DA
:1018600040C14130510509F03CC180917E048D7F1B
:101870000BC0933061F4811134C14130510509F03E
:1018800030C180917E04826080937E042AC19530AD
:1018900041F48091E80080FFFCCF20682093E300B2
:1018A00020C1963009F05FC0EB8CFC8C1092E900EF
:1018B00010927C0410927B04123091F510927A04FD
:1018C000109279040E943A0B99E0BE016F5F7F4F3E
:1018D000DB01E92F1D92EA95E9F799831A8391E0DC
:1018E0009E8390EA98879AEF998720917B043091A4
:1018F0007C04275F3F4F3C832B838D831092E9004C
:1019000010927C0410927B04F0927A04E0927904A5
:1019100049E050E080E00E940E120E943A0BE1C0C4
:10192000F0927A04E09279040E943209DC01129666
:10193000ED90FC901397E114F10409F4C0C0D701B5
:10194000ED91FC910480F581E02DBE016B5E7F4F2F
:10195000C7010995009719F00CF0C3C0C6C0F70184
:10196000E084F184E8CF973009F4BFC0983021F4C7
:1019700081E08093F100B5C0993009F0B2C0837066
:1019800009F0B3C0E2E2F1E081E021E036E39081CA
:10199000992361F08093E9002093EB00919190935B
:1019A000EC003093ED008F5F873089F78EE78093EE
:1019B000EA001092EA008F898093900492C08B8D88
:1019C0009C8D1092E90010927C0410927B049093FD
:1019D0007A0480937904898D811156C08E899D89FE
:1019E000913A59F4813209F080C047E050E065E057
:1019F00071E080E00E940E1274C0913209F075C04F
:101A0000833289F4888D90E0982F88272F89822B44
:101A1000A0E0B0E08093010190930201A093030144
:101A2000B09304015EC0803269F48091E80082FFC7
:101A3000FCCF67E085E091E00E9435128BEF809348
:101A4000E80006C0823209F04CC08F8980930C01F7
:101A500080917D04882319F0EEEFFAE002C0E0E007
:101A6000F8E08091050190910601A0910701B091E5
:101A70000801803B9440A105B10509F088C0809120
:101A80000C0180FFA0C083C00E943209DC011296C5
:101A90000D911C9113970115110539F1D801ED91A4
:101AA000FC910190F081E02DBE016B5E7F4FC8017B
:101AB0000995811116C0F80100851185ECCF113010
:101AC000C1F0133091F48F89882309F455C0823016
:101AD000E9F440E860E186E096E00E946C18882313
:101AE00021F08EEF8093E80087C081E28093EB00C5
:101AF00083C08B8D9C8D089711F410938004809186
:101B00008004811136C067E176E038C0813029F465
:101B100040E86BE08AEF95E0E0CF833031F70E9438
:101B20003209DC011296ED90FC9013978E010F5F45
:101B30001F4F6801E114F10479F0D701ED91FC9198
:101B40000680F781E02DB801C7010995080F111D26
:101B5000F701E084F184EECFD8011C92F6010190E8
:101B60000020E9F73197BF016C197D0940E0C601FB
:101B7000B4CF69E276E002C066EF75E061157105E9
:101B800009F4B3CFFB01449150E080E833CF0FB6A6
:101B9000F894A8958091600088618093600010920D
:101BA00060000FBEA895EE3F2AE0F20739F0809161
:101BB000FE0A9091FF0A9183808393CF1092FF0ACF
:101BC0001092FE0A8ECFEE3F8AE0F80731F0808156
:101BD00091819093FF0A8093FE0A87E797E79183AC
:101BE00080839BE088E10FB6F894A895809360000D
:101BF0000FBE9093600075CF6C960FB6F894DEBF61
:101C00000FBECDBFDF91CF91FF91EF91BF91AF910B
:101C10009F918F917F916F915F914F913F912F9104
:101C20001F910F91FF90EF90DF90CF900F900FBE1C
:101C30000F901F90189580918E0408958091BC0894
:101C4000E091BA08F091BB08882349F0CF010296D1
:101C50009093BB088093BA08859194910895CF0121
:101C600002969093BB088093BA0880819181089571
:101C7000CF92DF92EF92FF920F931F93CF93DF9358
:101C80000E941E0E811520E8920761F48091710078
:101C90008D7F809371001092910046984798109222
:101CA000B1088BC021E02093B108813020E8920771
:101CB00051F48091B8089091B9089093BB08809333
:101CC000BA080E941E0E97FD05C02091B00822237D
:101CD00009F43FC02091AF0821113BC021E02093BF
:101CE000B208EC01DF77209769F481E08093B308B4
:101CF00046983FE9C32E3FE0D32EE12CF12CCAEFEA
:101D0000D0E014C08E0120E030E060E472E48FE0A7
:101D100090E0A90198010E94931969017A0181E07C
:101D2000C81AD108E108F1081092B308E0911B0924
:101D3000F0911C090995811103C081E08093B308DB
:101D40008091B2088823B9F18091B308811133C022
:101D500003C01092B208C5CF46992DC0479A0E9481
:101D60001E0E009771F09C01DE010E94E719DC0154
:101D7000CB0129E0B595A795979587952A95D1F739
:101D800003C08FEF9FEFDC01109290002AE02093B8
:101D90009100D0929900C09298008093B4089093DB
:101DA000B508A093B608B093B7088091710082601F
:101DB0008093710002C04798D2CFDF91CF911F91DD
:101DC0000F91FF90EF90DF90CF9008952F923F9268
:101DD0004F925F926F927F928F929F92AF92BF923B
:101DE000CF92DF92EF92FF920F931F93CF93DF93E7
:101DF000CDB7DEB728970FB6F894DEBF0FBECDBFC4
:101E00005A01822E912C9C01280D391D37FDC4C02A
:101E1000803891050CF0C0C09B01200F311D37FDAB
:101E2000BBC0603471050CF0B7C0AB0177FF04C0D4
:101E300044275527461B570B477055279B0177FFB3
:101E400002C0295F3F4FE3E035952795EA95E1F71A
:101E500077FF08C02150310968E070E0DB01A41B66
:101E6000B50BAD01602F66956695669570E00770BD
:101E700011F06F5F7F4FDB01A20FB31FBA83A983FD
:101E800039017694762C662477946794680E791ECF
:101E9000E12CF12C00E010E02301B0E84B0E511CC6
:101EA00068E070E0DB01A41BB50BBC83AB836981E8
:101EB0007A812617370709F46FC02830310509F4F5
:101EC0006BC02F3FBFEF3B070CF45BC0B201600F4C
:101ED000711FDB01AF56BB4FBE83AD83D801A60D8A
:101EE000B71DAF56BB4F6C0160E070E06815790517
:101EF0000CF047C0E0E8CE16D10409F442C0D7FC8C
:101F000034C02F3FFFEF3F0709F442C0FB01EE0D45
:101F1000FF1DEA0DFB1DE491042E01C0EE0F0A9493
:101F2000EAF73C90E329EC9341155105F1F0273095
:101F30003105D9F0FB01EE0DFF1DEA0DFB1DE4910B
:101F40002E2E312CF1010B8002C0F595E7950A94F5
:101F5000E2F7F887EF83ED81FE813080EF81F8852D
:101F6000E3291F01ED81FE8120826F5F7F4FED81AC
:101F7000FE813196FE83ED83FFEFCF1ADF0A1196C3
:101F8000B5CF2F5F3F4F00581F4FE80CF91C8FCF84
:101F90004115510579F6E9CF28960FB6F894DEBFC2
:101FA0000FBECDBFDF91CF911F910F91FF90EF90AA
:101FB000DF90CF90BF90AF909F908F907F906F9069
:101FC0005F904F903F902F9008950F931F93CF9362
:101FD000DF938C01C0E0D0E0F801EC0FFD1F6491AD
:101FE000662371F0E0919108F09192080190F081E0
:101FF000E02D81E998E00995892B11F02196ECCF2D
:10200000CE01DF91CF911F910F910895809191049E
:102010008EBDE2E9F4E081910DB407FEFDCF8EBDE7
:1020200088E0E139F807B9F70DB407FEFDCF089550
:1020300020E081E994E0B22FB111BFEFFC01002450
:10204000B193B193B193B1930394D1F70895FC0187
:1020500097FD379623E0F595E7952A95E1F7F695F4
:10206000FE2FEE27F795E795E25FFA4F9C01277068
:10207000332781E090E001C0880F2A95EAF790812C
:10208000982B90839181892B81830895009769F023
:10209000FC0101900020E9F73197AF01481B590B73
:1020A000BC0181E998E00C94CD0580E090E00895B2
:1020B0008F929F92AF92BF920F931F93CF93DF9314
:1020C000CDB7DEB7A1970FB6F894DEBF0FBECDBF78
:1020D00019A2423008F44AE08E010F5D1F4F842E92
:1020E000912CA12CB12CA50194010E94C519E62FB9
:1020F000B901CA0101501109EA3014F4E05D01C0D0
:10210000E95CD801EC93232B242B252B61F7C80124
:102110000E944610A1960FB6F894DEBF0FBECDBF49
:10212000DF91CF911F910F91BF90AF909F908F90B3
:1021300008959C01E1E7F0E090819D7F90831092EB
:10214000BC08EDE0F9E0F093BB08E093BA08F09327
:10215000B908E093B8083183208384E690E0938344
:10216000828380E090E8958384830C94380EFC0190
:1021700080919004811103C08FEF9FEF08959FB766
:10218000F89482E08093E9002091F20030E012168A
:10219000130614F421E030E02115310559F0289898
:1021A00084E680938F048091F10080838091F20017
:1021B000882319F09FBFC90108958BE68093E8003A
:1021C000F9CF1F920F920FB60F9211242F933F93C6
:1021D0004F935F936F937F938F939F93AF93BF932F
:1021E000EF93FF938091B4089091B508A091B60841
:1021F000B091B708892B8A2B8B2B81F18091B30882
:1022000081110BC098B180E4892788B98091B20808
:10221000882319F088B1805888B98091B4089091CA
:10222000B508A091B608B091B708181619061A0695
:102230001B06B4F48091B4089091B508A091B6083B
:10224000B091B7080197A109B1098093B4089093A0
:10225000B508A093B608B093B70802C00E94380E24
:10226000FF91EF91BF91AF919F918F917F916F916E
:102270005F914F913F912F910F900FBE0F901F9044
:1022800018952D9A0895BC0180E090E00C944212BC
:102290008FB12CB193B130E0209530952074332765
:1022A000A90123E0559547952A95E1F7292F30E0BC
:1022B00020953095207133273595279535952795AD
:1022C000242B8095807F822B089583B7817F83BFE5
:1022D00083B7816083BF889583B78E7F83BF08955E
:1022E0008EBD00000DB407FEFDCF0895EBE3FBE0CB
:1022F00090E1969FD001A0781124A80F6770E60F97
:10230000F11D8491AF56BB4F442321F0EC91E82B93
:10231000EC930895E82FE0958C918E238C9308958B
:10232000EF92FF920F931F93CF93DF937C018B016A
:10233000040F111DEB0177FF10C0C0E0D0E00DC00D
:10234000C217D3078CF480E8E816F10428F441E0C2
:10235000BE01C7010E947611219698010134110532
:102360007CF320E430E0ECCFDF91CF911F910F910F
:10237000FF90EF9008953FB7F894809122099091D3
:102380002309A0912409B091250926B5A89B05C071
:102390002F3F19F00196A11DB11D3FBFBA2FA92FE4
:1023A000982F8827820F911DA11DB11DBC01CD0161
:1023B00042E0660F771F881F991F4A95D1F708954D
:1023C00040917B0450917C042091790430917A04EF
:1023D00042175307B4F49091E8009570E1F390919F
:1023E000E80092FD19C08093F10080917B049091E8
:1023F0007C0401968F739927892B19F48EEF8093B3
:10240000E80080917B0490917C04019690937C0479
:1024100080937B0481E0089580E00895DF92EF923D
:10242000FF920F931F93CF93DF93D82E8A017B01E6
:10243000E40EF51EEB01CE15DF0571F0D7FE03C0EB
:10244000FE01849101C088810E94E01121968111D2
:10245000F2CF8FEF9FEF01C0C801DF91CF911F91A5
:102460000F91FF90EF90DF900895615030F0209130
:10247000F100FC0120830196F8CF289884E6809330
:102480008F0408958F929F92AF92BF92CF92DF9266
:10249000EF92FF926B017C010E94BB114B015C012A
:1024A000C114D104E104F104F1F00E94BB11DC017C
:1024B000CB0188199909AA09BB09883E9340A10557
:1024C000B10570F321E0C21AD108E108F10888EEE5
:1024D000880E83E0981EA11CB11CC114D104E10434
:1024E000F10419F7DDCFFF90EF90DF90CF90BF9010
:1024F000AF909F908F9008951F920F920FB60F92FA
:1025000011242F933F938F939F93AF93BF93809109
:102510001D0990911E09A0911F09B09120093091C9
:10252000210923E0230F2D3720F40196A11DB11DB1
:1025300005C026E8230F0296A11DB11D2093210995
:1025400080931D0990931E09A0931F09B093200941
:102550008091220990912309A0912409B091250925
:102560000196A11DB11D8093220990932309A09388
:102570002409B0932509BF91AF919F918F913F910D
:102580002F910F900FBE0F901F901895789484B5DF
:10259000826084BD84B5816084BD85B5826085BD5F
:1025A00085B5816085BD80916E00816080936E00ED
:1025B00010928100809181008260809381008091DF
:1025C0008100816080938100809180008160809390
:1025D00080008091910082608093910080919100B1
:1025E0008160809391008091900081608093900041
:1025F0008091C10084608093C1008091C10082609D
:102600008093C1008091C10081608093C10080915E
:10261000C30081608093C3008091C000826080937A
:10262000C0008091C20081608093C20080917A00D6
:10263000846080937A0080917A00826080937A002F
:1026400080917A00816080937A0080917A0080681E
:1026500080937A001092900410927E0410927F046E
:102660008091D70081608093D70080EA8093D80062
:1026700089B5806189BD89B5826089BD09B400FED4
:10268000FDCF61E070E080E090E00E944212809116
:10269000D8008F7C80618093D8008091E000807F9B
:1026A0008093E0008091E1008E7E8093E1008DE0D8
:1026B0008093E200559A209AEEEFFFE7859194917E
:1026C0008B3F9C4D19F481E080937D0481EC8093D5
:1026D0007C0085B1806F85B9249884B1866E84B9F9
:1026E0005E9A5F988AB1806D8AB9769A6E9881B346
:1026F000806F81BB899880B38D7080BB80E58CBD75
:1027000081E08DBD85E090E00E9443115F9A85E0F5
:1027100090E00E9443115E985C98CCE5D1E01C2FBC
:10272000135FFE0184910E94701121961C13F9CF52
:102730005C9A81E88093640081E080936500C0E04A
:10274000D4E080E00E9470112197D9F70E944811CF
:1027500087FF1FC05C9885EA0E9470115C9A2E98D2
:102760002F982D98809164008062809364000E946D
:102770006511FDCF2D980E9448118478843871F03E
:102780000E9448118471843131F188EC90E00E94FC
:1027900043110E94481182FDEDCF3AC00E944111C1
:1027A00088EC90E00E9443112F9882E090E00E9414
:1027B0007D198F3F29F06FEF82E090E00E9485192C
:1027C00084EF91E00E9443112F9A0E94481184786F
:1027D0008438D9F3D5CF0E94411188EC90E00E9453
:1027E00043112E9882E090E00E947D19882329F001
:1027F00060E082E090E00E94851984EF91E00E9401
:1028000043112E9A0E94481184718431D9F3BDCFAF
:102810000E94411182E090E00E947D19882331F0EE
:102820003E9A3F9A81E080938E0404C010928E04F9
:102830003E983F982E98CEEEDFEF0E94481186FF1B
:1028400004C02E9A2F9A2D9A39C0CC3F2FEFD20771
:1028500019F42E9A2F9805C0C831D10511F42F9A7A
:102860002D980E94181000E128E54CEA50E0BE01C6
:1028700084E190E00E94E60E0E9406108BE190E059
:102880000E944311C03F8FEFD80721F48AEF90E0F8
:102890000E9443112196C931D10579F68CEB92E063
:1028A0000E9443110E944111E0919508F091960811
:1028B0000190F081E02D85E998E0099582E390E0B0
:1028C0000E9443110E9448118111F8CF84E1809346
:1028D0009C0880E090E0FC01E85AFE4F14860D96BB
:1028E0008638E1E09E07B9F780E090E0FC01E25213
:1028F000FD4F14860D968638F1E09F07B9F781E009
:102900008093720480E490E090936704809366045F
:1029100080E290E09093690480936804E9E04E2E91
:10292000512CF4E0CF2ED12C7AE0272E312C2FB76A
:10293000F89480911D0990911E09A0911F09B091F2
:1029400020092FBF4091A1085091A2086091A308CF
:102950007091A4082091A508222341F020919D08A0
:10296000821B8093A6081092A5086AC38417950756
:10297000A607B70738F4481B423008F461C30E9429
:1029800065115EC321E02093A50880939D08909374
:102990009E08A0939F08B093A00820919C08820FE6
:1029A000911DA11DB11D8093A1089093A208A09331
:1029B000A308B093A4088091980890919908019673
:1029C00090939908809398080E94481187FF06C049
:1029D000809178048F5F8093780402C0109278040D
:1029E0000E94481184FF06C0809177048F5F809316
:1029F000770402C0109277040E94481183FF06C03A
:102A0000809176048F5F8093760402C010927604E2
:102A100080917504823009F4A0C230F4882359F003
:102A2000813009F450C00AC3833009F4DAC284301B
:102A300009F4EFC203C380917604813021F48093BE
:102A400075040E942A0680917804813041F48091B7
:102A500000018F5F873008F086E08093000190913D
:102A60007704913049F480910001815019F08093EE
:102A7000000102C0909300010E9418101092AA0851
:102A80001092A9081092A8081092A70800E420E864
:102A900044EB51E060E070E080E090E00E94E60EE0
:102AA000D092A808C092A70880E390E09093AA086B
:102AB0008093A9086091000170E080E090E04AE016
:102AC0000E945810BBC2C0917304D0917404219627
:102AD000D0937404C09373040E94481185FF10C002
:102AE0008091660490916704019797FD05C09093CB
:102AF00067048093660404C0109267041092660411
:102B00000E94481186FF13C080916604909167046B
:102B10000196893791052CF490936704809366049D
:102B200006C0E8E7F0E0F0936704E09366040E94D3
:102B3000481187FF10C08091680490916904019743
:102B400097FD05C0909369048093680404C01092B7
:102B50006904109268040E94481184FF0EC080919D
:102B600068049091690401968134910514F080E421
:102B700090E09093690480936804CE01B1010E94B3
:102B8000EE18892B71F02091660430916704409112
:102B90006804509169046EEDA62E62E0B62EF50130
:102BA00089C0E8E5F1E04DE051E08485882309F42F
:102BB0006DC02081318184819581280F391F37FDB7
:102BC00003C03183208307C01182108291958195C3
:102BD00091099583848380819181893791055CF087
:102BE00088E790E091838083848195819195819598
:102BF0009109958384838681978122813381280F6F
:102C0000391F37FD03C03383228307C0138212822A
:102C100091958195910997838683828193818134EF
:102C200091055CF080E490E09383828386819781B4
:102C300091958195910997838683828593850196E5
:102C4000938782872085318528173907F9F4138601
:102C500012862081318182819381AAEEB2E060E008
:102C60007C91772329F06F5F1D966E31C9F76FEF66
:102C7000469FD0011124A252BD4F11963C932E9332
:102C800013969C938E9312971C965C933D9692E0BC
:102C9000EE3DF90709F089CF76CF82819381841BBD
:102CA000950B0896419708F414863D9684E0E43627
:102CB000F80741F080819181821B930B0896419720
:102CC000A0F7EBCF809164049091650401979093F5
:102CD000650480936404892B51F483E08093750428
:102CE00080910001863019F484E08093750480E0BF
:102CF00090E0E12CF12CFC01E252FD4F24852223CF
:102D000019F0EFEFEE1AFE0A0D968638F1E09F07F4
:102D100091F728E0E216F1041CF082E0809375043C
:102D2000CE0168E270E00E94EE18892B21F486E063
:102D300091E00E949910809173049091740468E26C
:102D400070E00E94EE18449749F4F701EE0FFF1F60
:102D5000EF5EFE4F808191810E9499100E941810B1
:102D60001092AA081092A908D092A808C092A708A9
:102D700088E491E00E94461086E290E09093A808D3
:102D80008093A7081092AA081092A90860910001E8
:102D900070E080E090E04AE00E94581082E390E00A
:102DA0009093A8088093A7081092AA081092A908E7
:102DB0008FE491E00E94461084E690E09093A8088A
:102DC0008093A7081092AA081092A9086090640442
:102DD00070906504072C000C8808990897FE14C0B1
:102DE000E0919108F09192080190F081E02D6DE260
:102DF00081E998E0099566277727CB01661977095D
:102E0000880999094AE003C04AE0C401B3010E945D
:102E10005810609168047091690464507109809140
:102E200066049091670408E028E04CEA51E00497BA
:102E30000E94E60EC8E5D1E08C85882331F14885F3
:102E400059852C813D816A817B818881998164507B
:102E5000710908E0443151055CF41216130624F49C
:102E600028E044EA51E00EC028E04CE951E00AC0F5
:102E70001216130624F428E044E951E003C028E0C8
:102E80004CE851E004970E94E60E2D9682E0CE3D7C
:102E9000D80791F6F5018485882369F062817381F2
:102EA000645071098081918108E028E044E851E094
:102EB00004970E94E60EFDE0AF0EB11C24E6A216B8
:102EC00024E0B20639F7C7E0D0E0CE19DF0993E07D
:102ED000CC0FDD1F9A95E1F72296A12CB12C2CE3A3
:102EE000822E912C0BE310E0EA14FB0481F48CE7B2
:102EF000682E712C44E0BE01C3010E9490118FEF37
:102F0000681A780A90E869167104A1F719C00034AC
:102F1000110518F4C8010E942710E0E48E169104F0
:102F200018F4C4010E94271042E0B8018DE790E038
:102F30000E94901142E0B8018EE790E00E9490114B
:102F4000FFEFAF1ABF0A0850110928E0821A910852
:102F500088E0A816B10441F671C080917304909185
:102F600074040196909374048093730480917604A2
:102F7000813021F41092750480930001D092A8084A
:102F8000C092A7085092AA084092A90889E791E048
:102F90000E94E50F8091730490917404B1010E9426
:102FA000EE18892B09F04AC060E370E080E090E001
:102FB0000E9406064B015C0168E770E080E090E04B
:102FC0000E940606DC01CB01E0E18E0E911CA11CE3
:102FD000B11C08E028E044E851E0B4010E94E60E8C
:102FE0002DC080917604813049F4809375048091DE
:102FF00000018F5F809300010E942A06D092A808EA
:10300000C092A7085092AA084092A90883E791E0CD
:1030100013C00E94481183FF05C01092750481E01F
:1030200080930001D092A808C092A7085092AA08E5
:103030004092A90889E691E00E94E50F0E940610DF
:1030400080E090E0892B09F472CC0E9400006CCCE7
:103050000F931F93CF93DF938C0181E090E00E9448
:103060007D1980FF31C08AE090E00E947D199FEFBA
:10307000980F9E3F48F522E330E0D80157963C93E5
:103080002E93569728E330E059963C932E93589709
:10309000CBE0D0E0D801ED91FC910190F081E02DE2
:1030A000682FC8010995CE010E947D192196C13172
:1030B000D10581F70E94061088EE93E0DF91CF9151
:1030C0001F910F910C944311DF91CF911F910F919C
:1030D000089504970C942818CF92DF92EF92FF92F4
:1030E0000F931F93CF93DF931F92CDB7DEB7182FA7
:1030F000062FE42E862F880F8E5F99830E94E011A1
:1031000083E00E94E011F12EC12E9981D92E8C2DE1
:103110008F19801798F4F601E7FE02C0849101C070
:1031200080810E94E011182F80E00E94E01181232D
:10313000FFEFCF1ADF0A8111EACF01C081E00F90C3
:10314000DF91CF911F910F91FF90EF90DF90CF9083
:103150000895EDEBF8E01382128288EE93E0A0E090
:10316000B0E084839583A683B7838CE291E091835A
:1031700080838FEF9FEF95878487E1E9F8E01382E2
:1031800012821186128620E1238790878783108A16
:10319000118A128A138A148A8CE391E091838083C6
:1031A00086E491E095838483178A168A118E108EA7
:1031B00081E0828F138E848F158E8BE19EE0909339
:1031C0001C0980931B0980E090E890931A09809372
:1031D000190946983E9A47983F9A089597FB072EFB
:1031E00016F4009407D077FD09D00E94021907FC5D
:1031F00005D03EF4909581959F4F08957095619507
:103200007F4F0895AA1BBB1B51E107C0AA1FBB1F1C
:10321000A617B70710F0A61BB70B881F991F5A9562
:10322000A9F780959095BC01CD010895EE0FFF1F81
:103230000590F491E02D099481E090E0F8940C94CD
:10324000F6198F929F92AF92BF92CF92DF92EF9238
:10325000FF92CF93DF93EC01688179818A819B8112
:10326000611571058105910521F464E279ED8BE525
:1032700097E02DE133EF41E050E00E9493194901BE
:103280005A019B01AC01A7EAB1E40E94B2196B019B
:103290007C01ACEEB4EFA50194010E94C019DC01E1
:1032A000CB018C0D9D1DAE1DBF1DB7FF03C0019747
:1032B000A109B04888839983AA83BB83BC01CD014F
:1032C0009F77DF91CF91FF90EF90DF90CF90BF90ED
:1032D000AF909F908F9008950E94211908958DE0DE
:1032E00091E00E942119089560930D0170930E01E1
:1032F00080930F01909310010895F999FECF92BD2C
:1033000081BDF89A992780B50895262FF999FECFA7
:103310001FBA92BD81BD20BD0FB6F894FA9AF99AF2
:103320000FBE01960895052E97FB1EF400940E948F
:10333000AA1957FD07D00E94C51907FC03D04EF407
:103340000C94AA1950954095309521953F4F4F4FB9
:103350005F4F089590958095709561957F4F8F4F41
:103360009F4F08950E94E719A59F900DB49F900D5F
:10337000A49F800D911D11240895B7FF0C94B219DC
:103380000E94B219821B930B0895A1E21A2EAA1B68
:10339000BB1BFD010DC0AA1FBB1FEE1FFF1FA21705
:1033A000B307E407F50720F0A21BB30BE40BF50B02
:1033B000661F771F881F991F1A9469F7609570958B
:1033C000809590959B01AC01BD01CF010895A29F0E
:1033D000B001B39FC001A39F700D811D1124911DE9
:1033E000B29F700D811D1124911D0895F894FFCF97
:1033F00001FFFFFFFF00E1000000000000010000EE
:1034000000060126014A015D018801B801EE010BA9
:103410000200C180810000000000000046096C0A23
:103420006709F80A160B5C09000000008109CD0548
:103430002818FCFF000069186C6576656C3A00720C
:08344000656D61696E3A000040
:00000001FF
